:020000040800F2
:10000000A8070020C1010008EF1500089D11000895
:10001000ED150008B7030008EF1600080000000007
:10002000000000000000000000000000751600083D
:10003000B903000800000000F11500087716000859
:10004000DB010008DB010008DB010008DB01000820
:10005000DB010008DB010008DB010008DB01000810
:10006000DB010008DB010008DB010008DB01000800
:10007000DB010008DB010008DB010008DB010008F0
:10008000DB010008DB010008DB010008DB010008E0
:10009000DB010008DB010008DB010008DB010008D0
:1000A000DB010008DB010008DB010008DB010008C0
:1000B000DB010008DB010008DB010008DB010008B0
:1000C000DB010008DB010008DB010008DB010008A0
:1000D000DB010008DB010008DB010008DB01000890
:1000E000DB010008DB010008DB010008DB01000880
:1000F000DB0100080000000000000000DB01000838
:100100000000000000000000DB010008DB01000827
:10011000DB010008DB010008DB0100080000000033
:10012000DB01000800F002F800F03AF80AA090E8BD
:10013000000C82448344AAF10107DA4501D100F0A2
:100140002FF8AFF2090EBAE80F0013F0010F18BF35
:10015000FB1A43F001031847E81B0000081C0000CD
:10016000103A24BF78C878C1FAD8520724BF30C8E3
:1001700030C144BF04680C607047000000230024B5
:1001800000250026103A28BF78C1FBD8520728BFA7
:1001900030C148BF0B6070471FB51FBD10B510BD03
:1001A00000F0CFF81146FFF7F7FF01F0B1FA00F0C9
:1001B000EDF803B4FFF7F2FF03BC00F0F5F8000020
:1001C0000948804709480047FEE7FEE7FEE7FEE7EB
:1001D000FEE7FEE7FEE7FEE7FEE7FEE70448054927
:1001E000054A064B70470000ED160008250100087F
:1001F000A8010020A8070020A8030020A8030020D1
:1002000053EA020C00F069802DE9F04B4FF0000634
:10021000002B1FBFB3FA83F503FA05F424FA05F6A1
:100220005E4012BF1643B2FA82F502FA05F4C5F138
:1002300020051EBF22FA05FC44EA0C04203556EACC
:10024000044C4FEA144418BF641C4FF000084FF0F0
:100250000009904271EB030C39D3002919BFB1FAA0
:1002600081F701FA07F6B0FA80F700FA07F6C7F14E
:1002700020071EBF20FA07FC46EA0C062037B6FB13
:10028000F4FCA7EB0507103F07F01F0BCBF120068E
:100290000CFA0BFB2CFA06F644BFB3460026202FBF
:1002A000A4BF5E464FF0000B5BEA060C08BF4FF0A0
:1002B000010B19EB0B09ABFB027C48EB0608C01BDA
:1002C00006FB02CC0BFB03CC71EB0C01C1E70B4628
:1002D000024641464846BDE8F08B13B54FF000009A
:1002E0004FF00001AFF30080BDE81C4070474FF0B5
:1002F000000200B5134694469646203922BFA0E876
:100300000C50A0E80C50B1F12001BFF4F7AF090781
:1003100028BFA0E80C5048BF0CC05DF804EB890072
:1003200028BF40F8042B08BF704748BF20F8022BB5
:1003300011F0804F18BF00F8012B704770477047CD
:100340007047754600F02CF8AE46050069465346E6
:1003500020F00700854618B020B5FFF73FFFBDE845
:1003600020404FF000064FF000074FF000084FF01C
:10037000000B21F00701AC46ACE8C009ACE8C009AD
:10038000ACE8C009ACE8C0098D46704710B504461A
:10039000AFF300802046BDE81040FFF70ABF000021
:1003A000004870474801002001491820ABBEFEE715
:1003B000260002007047FEE77047000070B5044653
:1003C00000F028F90546601C02D004484068044447
:1003D00000F020F9401BA042FAD370BDE4000020D9
:1003E0002DE9F04FDFF80492002309F1040A0126F9
:1003F00003240AF1040B85B00F270BF1040EEDE086
:1004000006FA03F51CEA05027DD091F804C00CF051
:10041000030CBCF1010F02D0BCF1020F26D1D0F8C1
:100420000880CDF800804FEA430804FA08FCCDF8B4
:100430001080DDF8008028EA0C08CDF80080D1F8A3
:100440000CC0DDF810800CFA08FCDDF800804CEAE6
:10045000080CC0F808C0D0F804C02CEA050C0D79CF
:10046000C5F300159D4045EA0C0545600D79ED4347
:10047000AD070ED0C5684FEA430804FA08FC25EA28
:100480000C05D1F808C00CFA08FC4CEA050CC0F8C1
:100490000CC00D7905F00305022D19D1DD0800EB24
:1004A000850502952D6A4FEA437C4FEADC6CCDF856
:1004B00010C007FA0CFC25EA0C05D1F81080DDF815
:1004C00010C008FA0CF848EA0508029DC5F820801B
:1004D00005684FEA430804FA08FC25EA0C0591F880
:1004E00004C00CF0030C0CFA08FC4CEA050CC0F834
:1004F00000C04D6815F4403F6FD03D4DD5F800C0A9
:100500004CF0010C00E068E0C5F800C02D6823F055
:10051000030C05F001050095364D65440295AD6864
:100520004FEA837C4FEA1C7807FA08FC25EA0C05A1
:10053000DFF8C4C0604502D14FF0000C16E0DFF8D0
:10054000BCC0604502D14FF0010C0FE0DFF8B0C035
:10055000604502D14FF0020C08E0DFF8A8C060450A
:1005600002D14FF0030C01E04FF0050C0CFA08FC2F
:100570004CEA050C029DC5F808C0D9F80050CC46DD
:10058000D1F8048095435FEAC83800D51543CCF80C
:100590000050DAF80050D446D1F8048095435FEA61
:1005A000883800D51543CCF80050DBF80050DC4605
:1005B000D1F8048095435FEAC82800D51543CCF8EC
:1005C0000050DEF80050F446D1F8048095435FEA0D
:1005D000882800D51543CCF800505B1C0A68944667
:1005E000DA407FF40DAF05B0BDE8F08F00040140A4
:1005F0002038024000000140000002400004024098
:1006000000080240000C02400AB1816170470904F1
:10061000FBE700000148806870470000E40000200C
:1006200070B5040025D094F83D00002520B984F869
:100630003C50204600F0B4F9242084F83D002068A6
:10064000016821F0010101602068016841F4004166
:1006500001602068016821F40041016000F032FB74
:100660004D4A6168914201D84C4900E04C498842AA
:1006700001D2012070BD4B492368B0FBF1F15E68E7
:1006800026F03F060E435E606368934206D94FF43E
:10069000967359434FF47A73B1FBF3F12368491C05
:1006A0001E6A26F03F06314319626168914210D8F4
:1006B0004900401EB0FBF1F2521CC2F30B02042AA7
:1006C00001D2042022E0B0FBF1F0401CC0F30B008B
:1006D0001CE0A268F2B301EBC10303EB0116431E59
:1006E000B3FBF6F35B1C43F480431B0549D092B384
:1006F00001EBC10202EB0111401EB0FBF1F0401C06
:10070000C0F30B0040F4804040F400402168CA6907
:100710004CF6FF739A431043C861D4E907100143B4
:100720002068026822F0C00211430160D4E903018D
:1007300001432068826848F2FF339A431143816085
:10074000D4E9050108432168CA6822F0FF0210437A
:10075000C86001E00EE016E02068016841F0010188
:1007600001602564202084F83D00256384F83E5014
:10077000002070BD01EB4106431EB3FBF6F35B1C8A
:10078000B3E70120C2E701EB4101401EB0FBF1F0ED
:10079000401CC0F30B00B7E7A086010080841E0058
:1007A00000093D0040420F002DE9FF4F83B09A46FB
:1007B000DDE9119793460446DDF84080FFF72AFFF4
:1007C000054694F83D00202870D119230122714973
:1007D0002046009500F078FD0028F5D194F83C0003
:1007E000012863D0012084F83C0020680168C90713
:1007F00003D1016841F0010101602068016821F422
:1008000000610160222084F83D00402084F83E0011
:1008100000262664C4F82480A4F82A90608D2085E0
:100820005D48E062CDE9007553465A46204604997A
:1008300000F0CCFC00287CD1208DD0B1012821D043
:100840000228206824D0416980690090208D032807
:1008500069D801282BD0514902283B464FF00002AD
:10086000009559D08846204600F02EFD002860D122
:100870003CE02068416981690091016841F40071A0
:10088000016077E02068016821F480610160F0E791
:10089000016821F4806101602068016841F4006111
:1008A0000160206841698069009063E06FE02A463A
:1008B0003946204600F087FD98BB20680069616AD0
:1008C00008704EE02068016841F400710160206802
:1008D0000069616A0870606A401C6062218D491E6F
:1008E0002185618D491E6185216838E02068016895
:1008F00021F48061016020680069616A0870606AA3
:10090000401C6062208D401E2085608D401E6085E9
:100910003B46002241460095204600F0D5FC00B938
:10092000D0E706E0FFE72A463946204600F04BFDB7
:1009300018B1012007B0BDE8F08F20680069616A36
:100940000870606A401C6062218D491E2185618D9E
:10095000491E618521684A69D24352070AD4096950
:100960000170606A401C6062208D401E2085608D91
:10097000401E6085208D00287FF468AF202084F819
:100980003D0084F83E6084F83C600020D2E70220FD
:10099000D0E70000020010000000FFFF040001008B
:1009A00010B586B0044614216846FFF7A0FC144930
:1009B0002068884221D11348016841F0020101609A
:1009C0000068694600F0020005904FF44070009006
:1009D0001220019000200290032003900420049034
:1009E0000948FFF7FDFC07480830016841F4001191
:1009F0000160006800F40010059006B010BD000012
:100A0000005400401C380240000402400248816843
:100A10004268114481607047E400002010B5002452
:100A2000032000F06BF80F2000F008F808B1012453
:100A300001E000F025F8204610BD000070B50E4E14
:100A400005460024706898B14FF47A71B1FBF0F05C
:100A50000A490968B1FBF0F000F08CFB40B9102D99
:100A600006D200222946501E00F028F8356000E02A
:100A70000124204670BD0000E4000020F0000020AA
:100A80000D4808B5016841F000410160016801F0BE
:100A900000410091011F0A6842F001020A600968E2
:100AA00001F001010091016841F08051016000688E
:100AB00000F08050009008BD24380240F0B40E4B86
:100AC0001B680C46C3F30223C3F10705042D00D9AC
:100AD0000425191D072901D2002300E0DB1E012691
:100AE00006FA05F1491E214099409E40761E1640A7
:100AF0003143F0BC00F0FCBD0CED00E0064900F015
:100B0000070208684FF6FF03184040EA0220034A34
:100B100010430860704700000CED00E00000FA058B
:100B20002DE9F0470E46050079D0DFF88481D8F82A
:100B3000000000F00100B04214D2012E05D1D8F817
:100B4000001041F00401C8F80010D8F8001021F09E
:100B500001013143C8F80010D8F8000000F001008E
:100B6000B0425CD12878534C800705D52068A9682D
:100B700020F0F000084320602878C0075CD04D4981
:100B80006868083902281AD003281BD00968012890
:100B90001BD08905002966DA216821F00301014391
:100BA0002160FFF737FD6968074641F28830022966
:100BB00014D0032920D0012981462AD038E00968C1
:100BC0008903E7E709688901E4E78907E2E700BFED
:100BD000FFF720FDC11B494501D926E08146206869
:100BE000C0F381000228F3D126E000BFFFF712FD19
:100BF000C11B494501D918E081462068C0F3810036
:100C00000328F3D118E000BFFFF704FDC11B4945DD
:100C10000BD82068C0F381000128F5D10CE022E058
:100C2000FFF7F8FCC11B494502D90320BDE8F08756
:100C3000206810F00C0FF3D1D8F80010404601F0F6
:100C40000101B14211D9012E03D1016841F0040123
:100C50000160016821F0010131430160006800F08A
:100C60000100B04201D00120E0E72878400705D517
:100C70002068E96820F4E0600843206028780007D5
:100C800006D52068296920F4605040EAC100206040
:100C900000F028F82168084AC1F30311515CC840EC
:100CA0000649086006480068BDE8F047FFF7C6BE81
:100CB000003C024008380240251D0008F0000020DA
:100CC000E40000200448054900680968044AC1F3AB
:100CD0000221515CC8407047F000002008380240F3
:100CE000351D000870B5154D2968154801F00C0236
:100CF000042A0CD0134C082A0AD00C2A0AD0281F28
:100D00000068C0F342314FF40040491C884070BD78
:100D1000204670BD0C4AC1F38343D35CC1F38152BA
:100D20002968521CC90302D5A3FB040101E0A3FBFF
:100D300000010023FFF764FA70BD0000083802408C
:100D40000024F40000366E011C1D00082DE9F84F48
:100D500004007DD0FC480168006801F00C0700F435
:100D600080362078F94DC00741D0082F12D00C2FC3
:100D700002D1B6F5803F0DD06068012811D008B1CE
:100D8000052818D0286820F480302860286820F4CE
:100D9000802009E02868800329D560680028D8D021
:100DA00025E0286840F480302860606890B1FFF743
:100DB00031FC80460AE0286840F480202860F0E793
:100DC000FFF728FCA0EB080064287BD82868800384
:100DD000F6D50CE0FFF71EFC804605E0FFF71AFC95
:100DE000A0EB08006428F0D828688003F6D42078A7
:100DF000DFF85CB3DFF85C8380074FF001094FF048
:100E0000000A35D5042F0AD00C2F00D13EB1E0687E
:100E1000F8B1C8F80090FFF7FDFB06460BE0286824
:100E200080070BD5E068012812D107E0FFF7F2FB3D
:100E3000801B0228C9D828688007F7D5DBF8001086
:100E4000226921F4F85141EA0221CBF800100FE0A9
:100E500077E1C8F800A0FFF7DDFB064605E000BF1C
:100E6000FFF7D8FB801B0228AFD828688007F7D48B
:100E70002078C00674D53FB1A069E0B3C8F82090CF
:100E8000FFF7C8FB06464AE02868800502D5A0693E
:100E9000002884D0206ADBF800105E4601F460412F
:100EA000884210D900F0A6FB0028BDD13068216A25
:100EB00020F4604008433060217F306861F31F6098
:100EC00030600FE096E0316821F460410143316009
:100ED000217F306861F31F603060206A00F08AFB78
:100EE0000028A1D1216A4FF4004009EB513188401C
:100EF0009549096800E025E0974AC1F30311515C68
:100F0000C8409649086096480068FFF797FD00289A
:100F10006FD125E0FFF77EFB801B02286AD8286886
:100F20008005F7D5DBF80010226A21F460411143F7
:100F3000CBF80010227FDBF8001062F31F61CBF8C2
:100F400000100DE0C8F820A0FFF764FB064604E09F
:100F5000FFF760FB801B02284CD828688005F7D477
:100F60002078804E000722D57F48616981B1C0F8A2
:100F70000090FFF74FFB834606E000BFFFF74AFBF8
:100F8000A0EB0B00022835D830688007F6D50EE0BC
:100F9000C0F800A0FFF73EFB834605E0FFF73AFBF1
:100FA000A0EB0B00022825D830688007F6D4207803
:100FB00040076DD56B484FF0000B10380068C0003B
:100FC0000BD468481038016841F080510160006816
:100FD0004FF0010B00F08050009064480168C90593
:100FE00014D4016841F480710160FFF713FB009095
:100FF00008E08DE079E000BFFFF70CFB0099401A94
:10100000642872D859480068C005F5D5A068012841
:101010000AD008B1052811D0306820F48070306003
:10102000306820F4806002E0306840F48070306006
:10103000A068A8B1FFF7EEFA00900DE0306840F428
:1010400080603060F0E700BFFFF7E4FA0099411AD2
:1010500041F2883081425AD830688005F4D50EE0DC
:10106000FFF7D8FA009007E0FFF7D4FA0099411A89
:1010700041F2883081424AD830688005F4D4BBF10F
:10108000000F05D037481038016821F08051016009
:10109000606A58B30C2F41D00228504605D0C8F8DA
:1010A0006000FFF7B7FA044634E04746C8F860002E
:1010B000FFF7B0FA064604E0FFF7ACFA801B0228FF
:1010C00025D828688001F7D4D4E90A1001431E48C6
:1010D000226B036823F47D031A4311430160C7F8B0
:1010E0006090FFF797FA044607E010E040E000BF89
:1010F000FFF790FA001B022809D828688001F7D56D
:1011000036E000BFFFF786FA001B022802D9032051
:10111000BDE8F88F28688001F4D429E00128F7D0D1
:1011200009480068A26A00F48031914209D1E26A5C
:1011300000F47011914204D1216B00F44000884208
:1011400016D00120E4E700000838024000380240D1
:101150000438024000004742251D0008F00000202E
:10116000E40000203438024080064742007000400E
:101170000020CDE710B5401EB0F1807F01D30120E3
:1011800010BD4FF0E02460610F21601700F0B0FA4D
:101190000020A06107202061002010BDFEE701684B
:1011A0004A69D24352050FD46FF480624A6100212C
:1011B00040F8301F202242738173026942F004021A
:1011C0000261017301207047002070472DE9F84F3C
:1011D0000446006889460B9D01689846174641F40D
:1011E000806101602068016841F4807101600095B0
:1011F0004FF0011B0022594620460A9B00F064F87C
:101200004FF4007A40B120680068C00501D5C4F8E9
:1012100040A00320BDE8F88F216809F0FE000861B6
:101220002B46284920460A9A00F082F8F0BB206835
:101230004169806900902A4620460A9900F0F6F834
:1012400040B1206C04283AD12068016841F4007153
:10125000016034E0FEB2B8F1010F09D02168380A0C
:1012600008612A4620460A9900F0E0F80028E8D1F3
:10127000206806612A4620460A9900F0D7F800281F
:10128000DFD12068016841F480710160009500227F
:10129000594620460A9B00F017F80028B3D1216870
:1012A00009F0FF0040F00100086100E007E02B4674
:1012B000044920460A9A00F03BF80028AAD00120F1
:1012C000A8E70000020001002DE9F0471E46904605
:1012D0000D460446C1F30747DDF8209008E0701C76
:1012E00006D0FFF797F9A0EB0900B0420FD876B10E
:1012F0002068012F18D0806925EA00000004000C46
:1013000014D000214145EAD00020BDE8F08700203C
:1013100044F8300F20216173A073216941F020014E
:10132000216120730120F0E74069E5E70121E9E749
:101330002DE9F0479A4691460E46044600254FF0A7
:101340002008C1F3074725E020684069C0434005F5
:1013500014D42068016841F40071016021686FF4C1
:1013600080604861256384F83D8084F83E50206C9D
:1013700040F00400206484F83C501FE0B9F1FF3FC6
:1013800008D0FFF747F9A0EB0A0149450CD8B9F19D
:10139000000F09D02068012F13D0806926EA0000D1
:1013A0000004000C0BD0CFE744F8305F84F80D80C8
:1013B000A573206940F02000206125730120BDE85D
:1013C000F0874069EAE72DE9F041002590460E4696
:1013D0000446202717E04069C043C0060CD454F8E7
:1013E000301B6FF01000486144F810596777A577FB
:1013F000206A2062257717E0FFF70CF9A0EB0800C0
:10140000B04208D83EB120684169C9434906E2D4D8
:101410000020BDE8F08144F8305F6773A573206950
:1014200040F02000206125730120F2E770B51646D8
:101430000D4604460DE02046FFF7B1FE08B101203D
:1014400070BD681C05D0FFF7E5F8801BA84207D8DF
:1014500035B120684069C0430006ECD4002070BD5F
:10146000002044F8300F20216173A073216941F0FE
:10147000200121612073E2E7F0B585B04FF47A7264
:10148000062103A88DE8070001233B22D02118483C
:10149000FFF78AF9BDF80C00164C40BA00B2208064
:1014A000BDF80E1049BA0EB26680BDF8101049BAE8
:1014B0000DB2A58000F04AFB6FF00D073A4600F030
:1014C000E7FB00F0B1F9E060304600F03FFB3A4640
:1014D00000F0DEFB00F0A8F92061284600F036FBA2
:1014E0003A4600F0D5FB00F09FF9606105B0F0BD11
:1014F000F400002000000020F0B585B04FF47A72AF
:10150000062103A88DE8070001234322D0211948B2
:10151000FFF74AF9BDF80C00174C40BA00B2E08062
:10152000BDF80E1049BA0EB22681BDF8101049BAA6
:101530000DB2658100F00AFB104F00223B4600F01F
:10154000ADF900F071F9A061304600F0FFFA002219
:101550003B4600F0A3F900F067F9E061284600F08F
:10156000F5FA00223B4600F099F900F05DF920629F
:1015700005B0F0BDF40000200000002000606040D5
:1015800010B586B014216846FEF7B1FE1548016813
:1015900041F020010160016801F02001059101681E
:1015A00041F001010160016801F00101059101684C
:1015B00041F00201016000680B4C00F00200059050
:1015C000002207212046FFF71FF807200090012086
:1015D0000021CDE90101039169462046FEF700FF95
:1015E00006B010BD1C38024000000240FEE7FEE7D6
:1015F0007047000038B51C49002309681B4A11F0E8
:10160000F00F23D118491C310C68E500184C03D5A4
:10161000216801F4C0540EE00D6845F080550D605E
:101620000D6805F08055009524680D6804F4C054D9
:1016300025F080550D60B4F5C05F07D1B0F5404F7F
:1016400004D11068012340F004001060106820F0FD
:10165000010018431060106800F00100984201D0AA
:10166000012038BD002038BD08380240003C02404F
:10167000007000407047FFF7C9B9000010B592B084
:1016800034216846FEF733FE14210DA8FEF72FFE25
:101690001548016821F4C05141F400610160012145
:1016A000039102201021009000240491CDE9090447
:1016B00040040B9000010C906846FFF747FB08B10F
:1016C00072B6FEE70F200D900320CDE90E041094B2
:1016D00001210DA81194FFF723FA002801D072B65A
:1016E000FEE712B010BD0000007000407047FEE73A
:1016F0000907090E002804DB00F1E02080F800143F
:10170000704700F00F0000F1E02080F8141D7047D2
:10171000FFF784F9FFF7B2FFFFF732FF19481849C6
:101720004FF4804201601849416000218160C0E9A6
:10173000031241618161C1610162FEF771FF08B16D
:1017400072B6FEE700F024F8104E4FF42F78002513
:10175000012406EBC507381910F8011CE0B200F0AF
:101760004BF8FFF789FEFFF7C7FE641C092CF2DB7C
:101770004046FEF723FE6D1C182DE9DBE7E700006D
:1017800000540040F4000020A08601002400002046
:1017900010B50021092000F02FF803210A2000F0E5
:1017A0002BF807210B2000F027F801210C2000F076
:1017B00023F80021BDE810400F2000F01DB8000004
:1017C00070B50C4E05460024002201213046FEF77C
:1017D0001BFF05F0800204213046FEF715FF680666
:1017E000050E012211463046FEF70EFF641C082C40
:1017F000EADB70BD0000024070B50A4C0E4605469B
:10180000002202212046FEF7FFFE2846FFF7D8FF00
:101810003046FFF7D5FF2046BDE870400122022187
:10182000FEF7F2BE0000024021F00042A2F1605239
:10183000B2F5801F01F0004328BFD2F17F6C0BD9B5
:101840005FEA001C43EAC20242EB507018BF7047C7
:1018500028BF20F001007047B2F5801FBCBF1846BA
:1018600070474FEA410C1CF5001F02D2084600F0F9
:10187000D8B970B500F081F900000089FFF7F6BF14
:101880004FF00040A0F580007047000002494FF083
:10189000000000F0CBB900BF0000F87F2DE9C04187
:1018A00030B4DFF8A0C23CEA111418BF3CEA1314AC
:1018B00000F0EC8081EA03051CEA111444EAD574B7
:1018C00018BF1CEA131500F0C780A4EB05044FF005
:1018D000004545EAC12145EAC32341EA505143EAA4
:1018E000525304F17F74994204F500344FEAC0204A
:1018F0004FEAC22208BF904200F09C804FEA136575
:101900000FF24016765D4FEA134506FB05F7C7F167
:10191000807706FB07F74FEAD737A7FB03687642C5
:10192000C8F58038A7FB06CE38BFA8F1010807FB31
:1019300008E64FF0000EA6FB028CE6FB03CEDCF1BE
:10194000000CCEF1004E38BFAEF1010EA6FB0C58D4
:101950004FF000074FF00005E6FB0E87A1FB08C61D
:10196000A0FB07CE16EB0E0645F10005E1FB07656F
:1019700015F1E04E7EBFA4F580345FEA46066D4166
:1019800016F1800745F100054FEA17274FEA066672
:1019900047EA0567A6F1DE46B6F1805F4FEA1525F6
:1019A0001FD9384624F0010C05EBC471BCF1FE6F61
:1019B00001EB0C1102D8F0BCBDE8008124425CBFF1
:1019C00001F5801E9EEAC47F02D4F0BCBDE8008110
:1019D000244238D4F0BCA1F1C041BDE8004100F080
:1019E0001AB94FEAD22242EA43524FEAD323A7FB65
:1019F00002864FEAD02040EA415007FB03661EEA08
:101A00000E0F4FEAD12105FB026658BFA6EB005628
:101A1000B6EB00564FEA520E4EEAC37E18EB0E0E9E
:101A200056EB530EBDD518EB02085E417F1C55F1F5
:101A30000005B6E74FF480154FF000074FF00006A1
:101A40004FF00008ADE7F0BC4FF0000001F1C041DD
:101A500001F00041BDE8008111EA0C1F0CEA1315EA
:101A600000D00CE013EA0C1F00F025804FF00000BE
:101A7000F0BC81EA030101F00041BDE80081F0BC47
:101A8000BDE8004181EA030100F0C5B8F0BCBDE843
:101A9000004170B500F071F8097EFC3E00F007B817
:101AA00081EA03014FF0000001F00041704781EA34
:101AB000030100F0B0B8F0BCBDE800414FF00000F9
:101AC00021497047FFFDFBF9F7F5F4F2F0EEEDEB7D
:101AD000E9E8E6E4E3E1E0DEDDDBDAD8D7D5D4D32C
:101AE000D1D0CFCDCCCBCAC8C7C6C5C4C2C1C0BF78
:101AF000BEBDBCBBBAB9B8B7B6B5B4B3B2B1B0AF7E
:101B0000AEADACABAAA9A8A8A7A6A5A4A3A3A2A161
:101B1000A09F9F9E9D9C9C9B9A999998979796951C
:101B200095949393929191908F8F8E8E8D8C8C8BB8
:101B30008B8A898988888787868585848483838240
:101B4000828181800000FF070000F87F10F00042D2
:101B500048BF4042B0FA80F310FA03F10AD0C3F153
:101B60001D0303F580634FEA415002EB035202EB81
:101B7000D12170474FF0000070470EF1020E2EF099
:101B8000030E5EF8046B364205D4012A43EB0305CD
:101B900015F5001F12D8012841EB010C1CF5001FA0
:101BA0000CD80ED14FEAD17C15F5001F0CEB4C0C74
:101BB0000CF1020C08BF4CEBD37C04E04FF0080C96
:101BC00001E04FEAD37C0CEB4C0526FA05F606F053
:101BD0000706B6F1040C06D20EEB860CBDE8704089
:101BE0004CF0010C6047DFE80CF0090B02024FF0EB
:101BF00000414FF00000A1F5002170BD19461046CC
:101C0000012851EB010418BFD4F5001484BF002053
:101C100001F0004170BD0808A0F500114FEA310144
:101C20007047FF2141EAD050C00570470CF00F0308
:101C3000092B08BF082000F059800A2B0BD0082B75
:101C400018BF704708BF1CF0400F0AD04FF00000CB
:101C50004FF0000170471CF0400F18BF4FF00040DC
:101C600070471CF0100F08D020F0704300F07F4246
:101C700042EAD3014FEA4370704700F0604021F020
:101C80007F4242EA000201F07F4040EA72707047F2
:101C90004FF0FF0C4CF4E06C1CEA11531CBF9CEAA3
:101CA000030C9445C2BFDA4201EB02517047002B8E
:101CB0000DD0BCF1000F0FD0002A01F00041A4BFED
:101CC00041F0E04141F07F614FF00000704701F0CA
:101CD00000414FF00000704750EA01334FF09B0C79
:101CE00018BF4CF0806C7FF4D1AD70471CF4801F9E
:101CF00011D01CF4E02F03D06FEACC3149007047BB
:101D00004FF04050EFF3008222F0704242EA0002AE
:101D100082F3008870474FF0000070470304060804
:101D20000C10182030000000000000000001020329
:101D30000406070809000000000102030400000077
:101D4000601D000800000020F40000006001000891
:101D5000541E0008F4000020B40600007C010008B6
:101D60000000000000000000000000000000000073
:101D70000000000000000000000000000000000063
:101D80000000000001000000000000000002000050
:101D90000000000000000400000000000000000837
:101DA0000000000000000000100000000000000023
:101DB00000200000000000000000400000000000C3
:101DC0000000008001000000000000800002000010
:101DD00000000080000004000000008000000008F7
:101DE00000000080000000001000008000000000E3
:101DF0000020008000000000000040800000000083
:101E0000000000C001000000000000C0000200004F
:101E1000000000C000000400000000C00000000836
:101E2000000000C000000000100000C00000000022
:101E3000002000C000000000000040C000000000C2
:101E4000000080C010000000010000000000000041
:041E500068FF1F0008
:0400000508000125C9
:00000001FF
