:020000040800F2
:10000000F007002001020008D50D0008D10D0008FE
:10001000D30D0008F7030008D30E0008000000000D
:10002000000000000000000000000000590E000861
:10003000F903000800000000D70D00085B0E00085F
:100040001B0200081B0200081B0200081B0200081C
:100050001B0200081B0200081B0200081B0200080C
:100060001B0200081B0200081B0200081B020008FC
:100070001B0200081B0200081B0200081B020008EC
:100080001B0200081B0200081B0200081B020008DC
:100090001B0200081B0200081B0200081B020008CC
:1000A0001B0200081B0200081B0200081B020008BC
:1000B0001B0200081B0200081B0200081B020008AC
:1000C0001B0200081B0200081B0200081B0200089C
:1000D0001B0200081B0200081B0200081B0200088C
:1000E0001B0200081B0200081B0200081B0200087C
:1000F0001B02000800000000000000001B020008B6
:1001000000000000000000001B0200081B020008A5
:100110001B0200081B0200081B0200080000000070
:100120001B02000800F002F800F05AF80AA090E85C
:10013000000C82448344AAF10107DA4501D100F0A2
:100140004FF8AFF2090EBAE80F0013F0010F18BF15
:10015000FB1A43F001031847E40E0000040F0000EF
:100160000A444FF0000C10F8013B13F0070408BFDD
:1001700010F8014B1D1108BF10F8015B641E05D07B
:1001800010F8016B641E01F8016BF9D113F0080F30
:100190001EBF10F8014BAD1C0C1B09D16D1E58BFC2
:1001A00001F801CBFAD505E014F8016B01F8016BF9
:1001B0006D1EF9D59142D6D370470000002300246C
:1001C00000250026103A28BF78C1FBD8520728BF67
:1001D00030C148BF0B6070471FB51FBD10B510BDC3
:1001E00000F0CFF81146FFF7F7FF00F083FE00F0B4
:1001F000EDF803B4FFF7F2FF03BC00F0F5F80000E0
:100200000948804709480047FEE7FEE7FEE7FEE7AA
:10021000FEE7FEE7FEE7FEE7FEE7FEE704480549E6
:10022000054A064B70470000D10E00082501000862
:10023000F0010020F0070020F0030020F003002070
:1002400053EA020C00F069802DE9F04B4FF00006F4
:10025000002B1FBFB3FA83F503FA05F424FA05F661
:100260005E4012BF1643B2FA82F502FA05F4C5F1F8
:1002700020051EBF22FA05FC44EA0C04203556EA8C
:10028000044C4FEA144418BF641C4FF000084FF0B0
:100290000009904271EB030C39D3002919BFB1FA60
:1002A00081F701FA07F6B0FA80F700FA07F6C7F10E
:1002B00020071EBF20FA07FC46EA0C062037B6FBD3
:1002C000F4FCA7EB0507103F07F01F0BCBF120064E
:1002D0000CFA0BFB2CFA06F644BFB3460026202F7F
:1002E000A4BF5E464FF0000B5BEA060C08BF4FF060
:1002F000010B19EB0B09ABFB027C48EB0608C01B9A
:1003000006FB02CC0BFB03CC71EB0C01C1E70B46E7
:10031000024641464846BDE8F08B13B54FF0000059
:100320004FF00001AFF30080BDE81C4070474FF074
:10033000000200B5134694469646203922BFA0E835
:100340000C50A0E80C50B1F12001BFF4F7AF090741
:1003500028BFA0E80C5048BF0CC05DF804EB890032
:1003600028BF40F8042B08BF704748BF20F8022B75
:1003700011F0804F18BF00F8012B7047704770478D
:100380007047754600F02CF8AE46050069465346A6
:1003900020F00700854618B020B5FFF73FFFBDE805
:1003A00020404FF000064FF000074FF000084FF0DC
:1003B000000B21F00701AC46ACE8C009ACE8C0096D
:1003C000ACE8C009ACE8C0098D46704710B50446DA
:1003D000AFF300802046BDE81040FFF70ABF0000E1
:1003E000004870479001002001491820ABBEFEE78D
:1003F000260002007047FEE77047000070B5044613
:1004000000F028F90546601C02D004484068044406
:1004100000F020F9401BA042FAD370BD80010020FB
:100420002DE9F04FDFF80492002309F1040A0126B8
:1004300003240AF1040B85B00F270BF1040EEDE045
:1004400006FA03F51CEA05027DD091F804C00CF011
:10045000030CBCF1010F02D0BCF1020F26D1D0F881
:100460000880CDF800804FEA430804FA08FCCDF874
:100470001080DDF8008028EA0C08CDF80080D1F863
:100480000CC0DDF810800CFA08FCDDF800804CEAA6
:10049000080CC0F808C0D0F804C02CEA050C0D798F
:1004A000C5F300159D4045EA0C0545600D79ED4307
:1004B000AD070ED0C5684FEA430804FA08FC25EAE8
:1004C0000C05D1F808C00CFA08FC4CEA050CC0F881
:1004D0000CC00D7905F00305022D19D1DD0800EBE4
:1004E000850502952D6A4FEA437C4FEADC6CCDF816
:1004F00010C007FA0CFC25EA0C05D1F81080DDF8D5
:1005000010C008FA0CF848EA0508029DC5F82080DA
:1005100005684FEA430804FA08FC25EA0C0591F83F
:1005200004C00CF0030C0CFA08FC4CEA050CC0F8F3
:1005300000C04D6815F4403F6FD03D4DD5F800C068
:100540004CF0010C00E068E0C5F800C02D6823F015
:10055000030C05F001050095364D65440295AD6824
:100560004FEA837C4FEA1C7807FA08FC25EA0C0561
:10057000DFF8C4C0604502D14FF0000C16E0DFF890
:10058000BCC0604502D14FF0010C0FE0DFF8B0C0F5
:10059000604502D14FF0020C08E0DFF8A8C06045CA
:1005A00002D14FF0030C01E04FF0050C0CFA08FCEF
:1005B0004CEA050C029DC5F808C0D9F80050CC469D
:1005C000D1F8048095435FEAC83800D51543CCF8CC
:1005D0000050DAF80050D446D1F8048095435FEA21
:1005E000883800D51543CCF80050DBF80050DC46C5
:1005F000D1F8048095435FEAC82800D51543CCF8AC
:100600000050DEF80050F446D1F8048095435FEACC
:10061000882800D51543CCF800505B1C0A68944626
:10062000DA407FF40DAF05B0BDE8F08F0004014063
:100630002038024000000140000002400004024057
:1006400000080240000C02400AB1816170470904B1
:10065000FBE700000148806870470000800100202F
:10066000024881684268114481607047800100201F
:1006700010B50024032000F06BF80F2000F008F8FC
:1006800008B1012401E000F025F8204610BD00006B
:1006900070B50E4E05460024706898B14FF47A711B
:1006A000B1FBF0F00A490968B1FBF0F000F07CFB07
:1006B00040B9102D06D200222946501E00F028F81D
:1006C000356000E00124204670BD0000800100205C
:1006D0008C0100200D4808B5016841F0004101601F
:1006E000016801F000410091011F0A6842F0010217
:1006F0000A60096801F001010091016841F0805130
:100700000160006800F08050009008BD243802406D
:10071000F0B40E4B1B680C46C3F30223C3F107056C
:10072000042D00D90425191D072901D2002300E05A
:10073000DB1E012606FA05F1491E214099409E4024
:10074000761E16403143F0BC00F0C4BB0CED00E057
:10075000064900F0070208684FF6FF03184040EA18
:100760000220034A10430860704700000CED00E0CF
:100770000000FA052DE9F0470E46050079D0DFF8B4
:100780008481D8F8000000F00100B04214D2012E9C
:1007900005D1D8F8001041F00401C8F80010D8F8CD
:1007A000001021F001013143C8F80010D8F8000012
:1007B00000F00100B0425CD12878534C800705D589
:1007C0002068A96820F0F000084320602878C0075E
:1007D0005CD04D496868083902281AD003281BD01C
:1007E000096801281BD08905002966DA216821F0F3
:1007F000030101432160FFF72DFF6968074641F2BD
:100800008830022914D0032920D0012981462AD01A
:1008100038E009688903E7E709688901E4E789079F
:10082000E2E700BFFFF716FFC11B494501D926E0EB
:1008300081462068C0F381000228F3D126E000BF82
:10084000FFF708FFC11B494501D918E08146206820
:10085000C0F381000328F3D118E000BFFFF7FAFED0
:10086000C11B49450BD82068C0F381000128F5D190
:100870000CE022E0FFF7EEFEC11B494502D9032040
:10088000BDE8F087206810F00C0FF3D1D8F8001005
:10089000404601F00101B14211D9012E03D1016896
:1008A00041F004010160016821F001013143016060
:1008B000006800F00100B04201D00120E0E7287894
:1008C000400705D52068E96820F4E060084320600F
:1008D0002878000706D52068296920F4605040EA8E
:1008E000C100206000F018F82168084AC1F3031124
:1008F000515CC8400649086006480068BDE8F047FA
:10090000FFF7C6BE003C024008380240291000082C
:100910008C0100208001002070B5154D2968154814
:1009200001F00C02042A0CD0134C082A0AD00C2A1D
:100930000AD0281F0068C0F342314FF40040491C20
:10094000884070BD204670BD0C4AC1F38343D35C20
:10095000C1F381522968521CC90302D5A3FB0401CB
:1009600001E0A3FB00010023FFF76AFC70BD00005B
:10097000083802400024F40000366E012010000800
:100980002DE9F84F04007DD0FC480168006801F0B3
:100990000C0700F480362078F94DC00741D0082FAD
:1009A00012D00C2F02D1B6F5803F0DD0606801281F
:1009B00011D008B1052818D0286820F480302860AC
:1009C000286820F4802009E02868800329D5606821
:1009D0000028D8D025E0286840F48030286060687E
:1009E00090B1FFF737FE80460AE0286840F4802087
:1009F0002860F0E7FFF72EFEA0EB080064287BD804
:100A000028688003F6D50CE0FFF724FE804605E059
:100A1000FFF720FEA0EB08006428F0D828688003C8
:100A2000F6D42078DFF85CB3DFF85C8380074FF002
:100A300001094FF0000A35D5042F0AD00C2F00D140
:100A40003EB1E068F8B1C8F80090FFF703FE064633
:100A50000BE0286880070BD5E068012812D107E079
:100A6000FFF7F8FD801B0228C9D828688007F7D552
:100A7000DBF80010226921F4F85141EA0221CBF899
:100A800000100FE077E1C8F800A0FFF7E3FD06468D
:100A900005E000BFFFF7DEFD801B0228AFD8286805
:100AA0008007F7D42078C00674D53FB1A069E0B3C1
:100AB000C8F82090FFF7CEFD06464AE0286880057A
:100AC00002D5A069002884D0206ADBF800105E46B9
:100AD00001F46041884210D900F07EF90028BDD1B0
:100AE0003068216A20F4604008433060217F30681C
:100AF00061F31F6030600FE096E0316821F46041DF
:100B000001433160217F306861F31F603060206AEB
:100B100000F062F90028A1D1216A4FF4004009EBEE
:100B2000513188409549096800E025E0974AC1F3B2
:100B30000311515CC8409649086096480068FFF769
:100B4000A7FD00286FD125E0FFF784FD801B022858
:100B50006AD828688005F7D5DBF80010226A21F4EE
:100B600060411143CBF80010227FDBF8001062F3E4
:100B70001F61CBF800100DE0C8F820A0FFF76AFD58
:100B8000064604E0FFF766FD801B02284CD8286863
:100B90008005F7D42078804E000722D57F48616910
:100BA00081B1C0F80090FFF755FD834606E000BF15
:100BB000FFF750FDA0EB0B00022835D83068800706
:100BC000F6D50EE0C0F800A0FFF744FD834605E02F
:100BD000FFF740FDA0EB0B00022825D83068800706
:100BE000F6D4207840076DD56B484FF0000B1038D5
:100BF0000068C0000BD468481038016841F080518B
:100C0000016000684FF0010B00F0805000906448D4
:100C10000168C90514D4016841F480710160FFF7CF
:100C200019FD009008E08DE079E000BFFFF712FDAC
:100C30000099401A642872D859480068C005F5D553
:100C4000A06801280AD008B1052811D0306820F426
:100C500080703060306820F4806002E0306840F4DA
:100C600080703060A068A8B1FFF7F4FC00900DE040
:100C7000306840F480603060F0E700BFFFF7EAFCC6
:100C80000099411A41F2883081425AD83068800573
:100C9000F4D50EE0FFF7DEFC009007E0FFF7DAFC8A
:100CA0000099411A41F2883081424AD83068800563
:100CB000F4D4BBF1000F05D037481038016821F09B
:100CC00080510160606A58B30C2F41D00228504611
:100CD00005D0C8F86000FFF7BDFC044634E0474685
:100CE000C8F86000FFF7B6FC064604E0FFF7B2FC68
:100CF000801B022825D828688001F7D4D4E90A107F
:100D000001431E48226B036823F47D031A431143F9
:100D10000160C7F86090FFF79DFC044607E010E013
:100D200040E000BFFFF796FC001B022809D82868A6
:100D30008001F7D536E000BFFFF78CFC001B0228CE
:100D400002D90320BDE8F88F28688001F4D429E097
:100D50000128F7D009480068A26A00F48031914266
:100D600009D1E26A00F47011914204D1216B00F4C0
:100D70004000884216D00120E4E700000838024015
:100D800000380240043802400000474229100008A1
:100D90008C01002080010020343802408006474248
:100DA000007000400020CDE710B5401EB0F1807FFC
:100DB00001D3012010BD4FF0E02460610F216017C6
:100DC00000F088F80020A06107202061002010BDFD
:100DD000FEE7FEE7FEE7704738B51C4900230968C7
:100DE0001B4A11F0F00F23D118491C310C68E500A3
:100DF000184C03D5216801F4C0540EE00D6845F08D
:100E000080550D600D6805F08055009524680D68CB
:100E100004F4C05425F080550D60B4F5C05F07D1CF
:100E2000B0F5404F04D11068012340F00400106079
:100E3000106820F0010018431060106800F00100F5
:100E4000984201D0012038BD002038BD083802404A
:100E5000003C0240007000407047FFF701BC0000FA
:100E600010B592B034216846FFF761FA14210DA83D
:100E7000FFF75DFA1548016821F4C05141F40061A3
:100E800001600121039102201021009000240491AF
:100E9000CDE9090440040B9000010C906846FFF76F
:100EA0006FFD08B172B6FEE70F200D900320CDE96B
:100EB0000E04109401210DA81194FFF75BFC00288B
:100EC00001D072B6FEE712B010BD00000070004005
:100ED0007047FEE70907090E002804DB00F1E02057
:100EE00080F80014704700F00F0000F1E02080F857
:100EF000141D704786B0FFF7BBFBFFF7B1FF14214D
:100F00006846FFF714FA1D48016841F020010160AE
:100F1000016801F020010591016841F001010160C3
:100F20000068174C00F001000590002207212046C0
:100F3000FFF78AFB0720009001200021CDE9010185
:100F4000039169462046FFF76BFA00F01DF80D4E3D
:100F50004FF42F780025012406EBC507381910F847
:100F6000011CE0B200F044F8641C092CF6DB40469A
:100F7000FFF744FA6D1C042DEDDBEBE71C38024053
:100F8000000002400000002010B50021092000F000
:100F90002FF803210A2000F02BF807210B2000F086
:100FA00027F801210C2000F023F80021BDE81040B3
:100FB0000F2000F01DB8000070B50C4E054600244F
:100FC000002201213046FFF73FFB05F0800204219B
:100FD0003046FFF739FB6806050E01221146304600
:100FE000FFF732FB641C082CEADB70BD00000240F6
:100FF00070B50A4C0E460546002202212046FFF736
:1010000023FB2846FFF7D8FF3046FFF7D5FF2046E1
:10101000BDE8704001220221FFF716BB000002402C
:10102000030406080C101820300000000000000027
:101030000001020304060708090000005C10000814
:101040000000002090010000600100084C11000821
:101050009001002060060000BC0100085AFF015A00
:10106000FE086AFC0859113B3C42011E3C103050FE
:101070001001280D7C7E02027E4040407E3E02022E
:101080000311101008182848FE0808083C20203CCE
:1010900004043C29081424243C1C3E2204161B088A
:1010A00008092A220329041A02312E182442427EFA
:1010B000512B222203111A3C4D19013C3C7C220188
:1010C0001D7C7C4040036A40082A402018094C449B
:1010D000443C4444447C042B447C8619883A3C5E5E
:1010E0001348304808242830203028244718084066
:1010F0007C81C3A599810111174262524A46426917
:10110000C0196D1A229C2B201C663C26221D10142F
:101110002422211C1E20209919B139514A082F4B35
:10112000221C081324181A4901232A1C28084122CA
:1011300014081422410739D80008407F020408101F
:0C114000207F321072011468FF1F0000B5
:0400000508000125C9
:00000001FF
